:0400000000EF80F09D
:10000800A540A540A540A540A540A540A540A540C0
:10001800A540A540A540A540A540A540A540A540B0
:10002800A540A540A540A540A540A540A540A540A0
:10003800A540A540A540A540A540A540A540A54090
:10004800A540A540A540A540A540A540A540A54080
:10005800A540A540A540A540A540A540A540A54070
:10006800A540A540A540A540A540A540A540A54060
:10007800A540A540A540A54042007340A540A54025
:10008800A540A540A540A540A540A540A540A54040
:10009800A540A540A540A5404200A340A540A540D5
:1000A800A540A540A540A540A540A540A540A54020
:1000B800A540A540A540A540A540A540A540A54010
:1000C800A540A540A540A540A540A540A540A54000
:1000D800A540A540A540A540A540A540A540A540F0
:1000E8004200A540A540A540A540A540A540A54083
:1000F800A540A540A540A540A540A540A540A540D0
:02010800FF00F6
:10BFFE00000078A2FF9AA9428530A9C0853120168B
:10C00E00C0582024C04C00C0A000B130F00720352D
:10C01E00C0C84C18C060AD18802901F0F9AD198068
:10C02E0060AD188029016048AD18802902F0F968CA
:10C03E008D1980600A0D48656C6C6F2C20576F72DD
:10C04E006C64210A0D4920616D20363530322E0A7E
:10C05E000D000A0D49525100A9608530A9C08531E5
:10C06E002016C040FFFFFFFFFFFFFFFFFFFFFFFF98
:10C07E00FFFFFFFFFFFFFFFFFFFFFFFFFFFFFFFFC2
:10C08E00FFFFFFFFFFFFFFFFFFFFFFFFFFFFFFFFB2
:10C09E00FFFFFFFFFFFFFFFFFFFFFFFFFFFFFFFFA2
:10C0AE00FFFFFFFFFFFFFFFFFFFFFFFFFFFFFFFF92
:10FFEE00FFFFFFFFFFFFFFFFFFFFFFFF000000C04F
:02FFFE0066C0DB
:020000040001F9
:1000000039EF81F0080E0001B16F000E0401186F86
:100010001969C968000E086F0969C768000E106F7A
:100020001169C8680091BE90C6903F0E0201026F30
:1000300004010093C6922D0E436F1C0E446F000EF8
:10004000456F000E476F4691468B468F009701879C
:10005000C686009BBE8AC69A0099BE88C698209321
:10006000C282CA9220912181CA802095C284CA94FA
:10007000010E0201D56FA00ED46FD189D18B04017E
:10008000009FC68E070E0201766F0401009DBE8C94
:10009000C69C260E0201076FD28F1F0E636F1E0EC5
:1000A000646F030E656F1D0E676F1C0E686F000E88
:1000B0000001D56F020ED86F030ED96F040EDA6FF0
:1000C0007F0EDB6F020EDC6F080EDD6F200EDE6F21
:1000D000400EDF6F000ED76FA20ED66F010ED56FE8
:1000E000020ED86F030ED96F060EDA6F7F0EDB6F2C
:1000F000010EDC6F040EDD6F100EDE6F400EDF6F41
:10010000000ED76FA20ED66F020ED56F2A0ED86FD3
:100110007F0ED96F7F0EDA6F7F0EDB6F020EDC6F02
:10012000040EDD6F100EDE6F400EDF6F000ED76F16
:10013000920ED66F030ED56F2A0ED86F7F0ED96F31
:100140007F0EDA6F7F0EDB6F020EDC6F040EDD6F49
:10015000100EDE6F400EDF6F000ED76F8A0ED66F67
:10016000000E046E000E036E000E0324D96E200EE6
:100170000420DA6E000EDF6E034A042A04BEF4D7B0
:10018000200E045CD8A0F0D7000EF86E550E0401C6
:10019000596FAA0E596F5991080E5D6F000E5E6F70
:1001A000000E5F6F550E596FAA0E596F5981E40EFC
:1001B00000D000D0E82EFCD700D000D0B59AB79A76
:0A01C000D68EA58AA78ABE80FFD75D
:1001CC000001D4A109D0C86ACFC4F6F4D1C4F7F4A5
:1001DC000800F5C4C0F445D0D4A315D0CEA60AD0DF
:1001EC00C86ACFC4D9F4D1501F0B2009DA6EDFC412
:1001FC00C0F437D0CFC4D9F4D1501F0B2009DA6E1C
:10020C00D0C4DFF42ED0CEA61ED0610044F302F58C
:10021C0061003CF301F5000EC86E180E011807E1E1
:10022C00800E0218D8A403D0B7C4C0F41AD0190E8B
:10023C00011807E1800E0218D8A403D0C7C2C0F47D
:10024C0010D0C0680ED0610044F302F561003CF39D
:10025C0001F5190E011805E1800E0218D8B4D0C4AE
:10026C00C9F2B59A1100026A016A0401080E5D6FA9
:0E027C00000E5E6F000E5F6F000102EF80F05B
:06028C00C868B79A1100DA
:02029400110057
:020000040020DA
:10000000FF0FFF0FFF0FFF0FFF0FFF0FFF0FFF0F80
:10001000FF0FFF0FFF0FFF0FFF0FFF0FFF0FFF0F70
:10002000FF0FFF0FFF0FFF0FFF0FFF0FFF0FFF0F60
:10003000FF0FFF0FFF0FFF0FFF0FFF0FFF0FFF0F50
:020000040030CA
:100000008C2FFFF79FFFFFFFFFFFFFFFFFFFFFFFAB
:10001000FFFFFFFFFFFFFFFFFFFFFFFFFFFFFFFFF0
:04002000FFFFFFFFE0
:00000001FF
