:0400000000EF80F09D
:1000080087408740874087408740874087408740B0
:1000180087408740874087408740874087408740A0
:100028008740874087408740874087408740874090
:100038008740874087408740874087408740874080
:100048008740874087408740874087408740874070
:100058008740874087408740874087408740874060
:100068008740874087408740874087408740874050
:1000780087408740874087404200874087408740C5
:100088008740874087408740874087408740874030
:1000980087408740874087404200874087408740A5
:1000A8008740874087408740874087408740874010
:1000B8008740874087408740874087408740874000
:1000C80087408740874087408740874087408740F0
:1000D80087408740874087408740874087408740E0
:1000E8004200874087408740874087408740874055
:1000F80087408740874087408740874087408740C0
:02010800FF00F6
:10BFFE0000004C00FEA205BD49E19D0002CA10F7EB
:10C00E009A86882049FEA94C85A1A21CBD4EE195B9
:10C01E00BBCAD0F8A212BD6BE19500CA10F8A900F8
:10C02E0085DC85DF85B28567A90E8564A90385A0A9
:10C03E00A268866520CDC8A97EA0E1200EC9205B2E
:10C04E00C286C384C420C200D01FA000E611D0084F
:10C05E00E612A512C920F01DA9559111D111D015C6
:10C06E000A9111D111F0E5D00C20F3D9A5ACC998E5
:10C07E00B0A22034D5A511A412C003909785858453
:10C08E008685818482A000A2038479867AA0009896
:10C09E009179E67920CDC8A98DA0E1200EC9208A1C
:10C0AE00C3A58538E579AAA586E57A20CFDAA9A6B3
:10C0BE00A0E1200EC9A96AA0C1850184026C01000D
:10C0CE00201BC1857F848038A5A6E5AAA8A5A7E573
:10C0DE00ABAAE898F0243849FF65A685A6B003C63A
:10C0EE00A7389849FF65A485A4B008C6A59004B1E9
:10C0FE00A691A488D0F9B1A691A4C6A7C6A5CAD008
:10C10E00F2601869108578BAE478903060C4829035
:10C11E002AD004C581902448A2089848B5A3CA1015
:10C12E00FA201FD2A2006895A4E8E00830F868A8AB
:10C13E0068C4829006D005C581B00160A20C20CDE6
:10C14E00C8BD01E7BC02E7200EC920C3C3A967A082
:10C15E00E8200EC9A488C8F00320C4DAA90085DF40
:10C16E0085DCA978A0E8200EC9206DC286C384C4E0
:10C17E0020C200F0F4A2FF8688900620ACC24C2CA0
:10C18E00C5208DC720ACC2845D205EC39044A00143
:10C19E00B1AA8572A57B8571A5AB8574A5AA88F118
:10C1AE00AA18657B857B8573A57C69FF857CE5ABCD
:10C1BE00AA38A5AAE57BA8B003E8C67418657190E5
:10C1CE0003C67218B1719173C8D0F9E672E674CADB
:10C1DE00D0F2A514F03FA585A48685818482A57B27
:10C1EE0085A6A47C84A7655D9001C885A484A5203E
:10C1FE00CEC0A57FA480857B847CA45D88B9100009
:10C20E0091AA88C003D0F6A51291AA88A51191AA69
:10C21E0088A9FF91AAA679A57AA00186718572B127
:10C22E0071F018A004C8B171D0FB38986571AAA03E
:10C23E00009171986572C8917190E08A18690285B3
:10C24E007BA5726900857C209FC34C77C12026C9CF
:10C25E002023C9D00A8AF009A97F2028C9CA2CA296
:10C26E0000203DE190FBF0F9C903D0034C6BC5C92A
:10C27E0007F01FC90AF020C90DF01CE000D004C958
:10C28E002190DEC908F0CEC97FF0CAE047B00B9509
:10C29E0014E82028C9D0CA4CC5C8A907D0F4A0FFFD
:10C2AE00A2008660865C38A5C3E914AAB514F05ABC
:10C2BE00C95FB056C93CB018C930B04E855CC922B2
:10C2CE00F06BC92A9044D008A90024601055A92A01
:10C2DE0024607036867884BAA0688473A0E3847470
:10C2EE00A000D173F0059020C8D0F7980AAABD8699
:10C2FE00E38573BD87E38574A0FFA678C8B173305C
:10C30E0007E8D514F0F6D02CA4BAE8C8991400C9E1
:10C31E0000F032E93AF006C949F002A98085604979
:10C32E0057D089855CB514F0E1C55CF0DDC8991471
:10C33E0000E8D0F1A678B17308C82810F9B173D00F
:10C34E00BEB51410C3C8C8991400C8C8C8C6C36007
:10C35E00A579A67AA00185AA86ABB1AAF01AA00388
:10C36E00B1AA88C512D004B1AAC511B00988B1AA64
:10C37E00AA88B1AA90DEF0011860D0FDA900A8919C
:10C38E0079C8917918A5796902857BA57A690085A6
:10C39E007C18A57969FF85C3A57A69FF85C4A58533
:10C3AE00A48685818482A57BA47C857D847E857F01
:10C3BE0084802077C5A268866568AA688EFE018D86
:10C3CE00FF01A2FD9AA900856160F0D2609006F08F
:10C3DE0004C9B7D0F4208DC7205EC320C200F00C74
:10C3EE00C9B7D09520BC00208DC7D08DA5110512E0
:10C3FE00D006A9FF85118512A001846020CDC8B199
:10C40E00AAF03E204DC5C8B1AAAAC8B1AAC512D07D
:10C41E0004E411F002B02A849720CFDAA920A49761
:10C42E00297F2028C9C922D006A56049FF8560C88A
:10C43E00B1AAD00EA8B1AAAAC8B1AA86AA85ABD0B5
:10C44E00B76010DE246030DAA2E50A0A9002E8181E
:10C45E0069699001E8857386748497A000B173AA08
:10C46E00C8B173CAF0B82028C9C8B17348C8B1732F
:10C47E00A0008574688573B173CAF0A22028C9C85C
:10C48E00D0F5A980856120ECC76868A9102010C17D
:10C49E0020D2C6189865C348A5C4690048A5884827
:10C4AE00A58748A9AD2024CC2003CB2000CB202685
:10C4BE00D9A5B0097F25AD85ADA9D2A0C48571845B
:10C4CE00724CBACBA938A0E220CAD820C200C9B299
:10C4DE00D00620BC002000CB2036D985B020ACCBB6
:10C4EE00A59848A59748A98148204DC5A5C3A4C4C1
:10C4FE00A688E8858B848CA000B1C3F007C93AF0FA
:10C50E001D4C35CCA002B1C318F050C8B1C38587FD
:10C51E00C8B1C385889865C385C39002E6C420BCA4
:10C52E00002035C54CF7C4F04E0AB0034CECC7C919
:10C53E0056B0CEA8B960E248B95FE2484CBC006C78
:10C54E000402C903B00118D061A5C4A4C3848B85AD
:10C55E008CA587A4888589848A68689007A95FA0BE
:10C56E00E84C5FC14C6AC1D00F38A579E901A47AB5
:10C57E00B00188858F849060208DC720D5C6A58890
:10C58E00C512B00B983865C3A6C49007E8B004A5D1
:10C59E0079A67A2062C3B0034CA7C6A5AAE901A466
:10C5AE00ABB0D090CD20D0D4860D60D0FDA48CC081
:10C5BE0000D005A21E4C4CC1A9932067DFA9932081
:10C5CE006ADF84C4A58B85C3A589A48A85878488E0
:10C5DE0060D0034C9FC320ACC3F02EA9052010C120
:10C5EE00A5C448A5C348A58848A58748A99D482045
:10C5FE00C2004CF7C4A9052010C1A5C448A5C34864
:10C60E00A58848A58748A98D4820C2002020C64C81
:10C61E00F7C4208DC720D5C6A588C512B00B983893
:10C62E0065C3A6C49007E8B004A579A67A2062C3B4
:10C63E009067A5AAE90185C3A5ABE90085C460A2F0
:10C64E00224C4CC1A8BABD0301C99DD0F2E8E89AAC
:10C65E0098F020C93AF01CE9B3AAF004CAD062CA15
:10C66E00869820BC002014CBA5ACF002A9FFBA45D9
:10C67E0098D01ABD02018587BD03018588BD0401CE
:10C68E0085C3BD050185C420C2004CF7C4E8E8E8A7
:10C69E00E8E89A4CC1C6A2042CA20E4C4CC1D09E06
:10C6AE00686868C98DD0EF6885876885886885C396
:10C6BE006885C420D2C6981865C385C39002E6C4A7
:10C6CE00604C35CCA23A2CA200A000845C8A455C5A
:10C6DE00855CB1C3F0EAC55CF0E6C8C922D0F3F0C0
:10C6EE00EC2014CB20C200C9B0F011C989D0D2A65B
:10C6FE00C3A4C420BC00B0C986C384C4A5ACF01EBC
:10C70E0020BC00B0034C20C6686820C2002035C58E
:10C71E00A000B1C3C9ACD00320C1C64CF7C4A00061
:10C72E00A201C8B1C3F00FC98BD003E8D0F4C9ACD5
:10C73E00D0F0CAD0EDC8981865C385C39002E6C480
:10C74E0020C20090C04C35C520D5C64CC4C64C3551
:10C75E00CCC9A9D0034C8BDFC9AAD0034C8FDF20E4
:10C76E00D0D448C98DF004C989D0E3C6AFD00468CF
:10C77E004C37C520BC00208DC7C92CF0EE6860A2D6
:10C78E000086118612B0F7E019A8B0DDE92FA8A532
:10C79E00110A26120A2612651185118A65120611D2
:10C7AE002AAA98651185119001E820BC004C91C70A
:10C7BE00A93C2CA9384820EBCDA65F301E85978466
:10C7CE009820CAD86848A0E2200BD620F0D820C204
:10C7DE0000C92CD0A820BC004CC4C74C0FCB20EBFA
:10C7EE00CD85978498A9C12024CCA55F482014CB71
:10C7FE00682A2006CBB0034CF0D8A002B1AEC90017
:10C80E00F022C5829017D00788B1AEC581900EA4D4
:10C81E00AFC47C9008D00DA5AEC57BB007A5AEA465
:10C82E00AF4C48C8A000B1AE2070D1A59EA49F8584
:10C83E00B884B92055D3A9ACA000859E849F20B79B
:10C84E00D3A000B19E9197C8B19E9197C8B19E9109
:10C85E00976020EBCD859784982053DFA65F300735
:10C86E00A820A8D04CF0D848A901B001682078D1F2
:10C87E00F00568A00091AD20C5D14C08C82011C9A3
:10C88E0020C200F03AC9ABF055C9AFF051C92CF037
:10C89E0037C93BF0652014CB245F30E120E2DA206B
:10C8AE0082D1A000A50FF00A38E50EF1AEB003203C
:10C8BE00CDC82011C9F0C9A9009514A214A000A9D1
:10C8CE000D2028C9A90AD052A50EC510900520CD5D
:10C8DE00C8D02738E564B0FC49FF6901D012482062
:10C8EE00CDD4C929D07B68C9ABD0068AE50E900A93
:10C8FE00AA8AF0062023C9CAD0FA20BC00D08660CE
:10C90E002082D12082D3A000AAF049B1712028C97B
:10C91E00C8CAD0F760A9202CA93FC920901948A5F4
:10C92E000FD00AA50EE564D00B850EF007C50ED00C
:10C93E000320CDC8E60E682040E1C90DD0148678DC
:10C94E00A60DF00AA9002028C9CAD0FAA90D860E94
:10C95E00A67829FF60A562100BA58DA48E8587840D
:10C96E00884C35CCA993A0E8200EC9A58BA48C8544
:10C97E00C384C460C922D00E20F1CBA93B2024CCA5
:10C98E002011C94C9AC92026C92023C920ACD02019
:10C99E006DC2A900F006A68FA490A980856286912B
:10C9AE00849220EBCD85978498A5C3A4C485118469
:10C9BE0012A691A49286C384C420C200D00724621A
:10C9CE00305B20C200245F1024855BC922F007A9CA
:10C9DE003A855BA92C18855CA5C3A4C46900900197
:10C9EE00C82088D1200CD52008C84C01CA20F3D904
:10C9FE0020F0D820C200F00AC92CF0034C63C920E5
:10CA0E00BC00A5C3A4C485918492A511A41285C3AC
:10CA1E0084C420C200F02C2031CC4CB0C920D2C628
:10CA2E00C8AAD012A206C8B1C3F073C8B1C3858D0F
:10CA3E00C8B1C3C8858EB1C3C8AA20C4C6E083F0EE
:10CA4E0081D0DAA591A492A66210034C81C5A000F4
:10CA5E00B191D00160A982A0E84C0EC9BAE8E8E80D
:10CA6E00E8BD0101C981D021A598D00ABD0201857A
:10CA7E0097BD03018598DD0301D007A597DD02015F
:10CA8E00F0078A186910AAD0D860D004A000F0036D
:10CA9E0020EBCD85978498206ACAF004A200F0633B
:10CAAE009A8A38E9F7857369FBA00120CAD8BABD06
:10CABE00080185B0A597A498200BD620F0D8A00128
:10CACE002066D9BADD0801F017BD0D018587BD0EB0
:10CADE00018588BD100185C3BD0F0185C44CF7C407
:10CAEE008A690FAA9A20C200C92CD0F120BC00205E
:10CAFE009ECA2014CB182438245F3003B00360B0D4
:10CB0E00FDA2184C4CC1A6C3D002C6C4C6C3A90010
:10CB1E0048A9022010C12000CCA900859B20C2008C
:10CB2E0038E9C09017C903B013C9012A4901459BC2
:10CB3E00C59B9067859B20BC004C2ECBA69BD02C12
:10CB4E00B079690A9075D007245F10034C18D3850D
:10CB5E00710A6571A868D941E3B0652003CB4820FE
:10CB6E0095CB68A4991019AAF076D05D265F8A85B8
:10CB7E005F2AA6C3D002C6C4C6C3A024859BD0D547
:10CB8E00D941E3B04490D7B943E348B942E34820D2
:10CB9E00ACCBA59B48B941E34C1ECB4C35CC68853C
:10CBAE0071E671688572A5B0482026D9A5AF48A553
:10CBBE00AE48A5AD48A5AC486C7100A0FF68F0204A
:10CBCE00C964F0032003CB8499684A85636885B3F2
:10CBDE006885B46885B56885B66885B745B085B88B
:10CBEE00A5AC60A5C3A4C469009001C82082D14C35
:10CBFE000CD520BC00B0034CF3D9AA302FC924F0B9
:10CC0E00F6C925F0F2C92EF0EEC922F0D6C928D009
:10CC1E005B201CCBA929A000D1C3D00B4CBC00A912
:10CC2E0028D0F3A92CD0EFA2024C4CC1C9B7F029E1
:10CC3E00C9B6F0BEC9B1D013A021D01F20E7CEA532
:10CC4E00AF49FFA8A5AE49FF4C9AD0C9AED0034C50
:10CC5E00F6D0E9C3B0274C35CCA01E68AA68E020F8
:10CC6E00D004C9D3F0034C6DCB4C0FCB20EBCD854C
:10CC7E00AE84AFA65F30034CCAD846B9600AA8B9D5
:10CC8E00FCE248B9FBE248B9B6E2F00548B9B5E2B4
:10CC9E004860201FCC4C05CB201FCC4C03CB465FED
:10CCAE004CBC00201CCB2031CC2005CB68AA68A838
:10CCBE00A5AF48A5AE4898488A4820D0D48A6020AF
:10CCCE001CCB2003CBA5ACC998B020209DD9A202C5
:10CCDE00B5AD9511CA10F920C200A200C929F00AFB
:10CCEE00201BD520C200C929D001604C6ACF202359
:10CCFE00CD455BA8A5AE455C4C9AD02023CD055BF7
:10CD0E00A8A5AE055C4C9AD02023CD255BA8A5AE78
:10CD1E00255C4C9AD020E7CEA5AE855CA5AF855B91
:10CD2E002010D620E7CEA5AF602006CBB013A5B756
:10CD3E00097F25B485B4A9B3A0002064D9AA4C807C
:10CD4E00CD465FC69B2082D385AC86AD84AEA5B59D
:10CD5E00A4B62086D386B584B6AA38E5ACF008A969
:10CD6E00019004A6ACA9FF85B0A0FFE8C8CAD00701
:10CD7E00A6B0300F18900CB1B5D1ADF0EFA2FFB048
:10CD8E0002A201E88A2A2563F002A9FF4C47D920A6
:10CD9E0031CCAA20F0CD20C200D0F46020E0CDA589
:10CDAE00AEA678F022E010B02306AF2ACAD0FAA4BD
:10CDBE00AF4C9AD020E0CDA5AEA678F00AE010B028
:10CDCE000B4A66AFCAD0FAA4AF4C9AD0A900A84CB1
:10CDDE009AD020D3D486782010D64CE7CEA200204D
:10CDEE00C200865E8593297F205FCEB0034C35CC82
:10CDFE00A200865F20BC009005205FCE900BAA207B
:10CE0E00BC0090FB205FCEB0F6C924D00BA9FF85E5
:10CE1E005F8A0980AA20BC0086940561C928D003C8
:10CE2E004CF9CEA9008561A57BA67CA00086AB85BA
:10CE3E00AAE47ED004C57DF02CA593D1AAD008A576
:10CE4E0094C8D1AAF0698818A5AA690690E1E8D01D
:10CE5E00DCC961B00AC9419005E95B38E9A560E912
:10CE6E007B38E985606848C97CD005A2244C4CC14A
:10CE7E00A57DA47E85AA84ABA57FA48085A684A764
:10CE8E001869069001C885A484A520CEC0A5A4A4C7
:10CE9E00A5C8857D847EA000A59391AAC8A594916E
:10CEAE00AAA900C891AAC891AAC891AAC891AAA570
:10CEBE00AA186902A4AB9001C88595849660A55DF9
:10CECE000A690565AAA4AB9001C885A484A5602053
:10CEDE00BC002000CBA5B0300DA5ACC9909009A91F
:10CEEE0040A0E22064D9D0744C9DD9A55E48A55FC0
:10CEFE0048A0009848A59448A5934820DDCE6885A3
:10CF0E009368859468A8BABD020148BD010148A581
:10CF1E00AE9D0201A5AF9D0101C820C200C92CF033
:10CF2E00D2845D2022CC68855F68855EA67DA57E55
:10CF3E0086AA85ABC580D004E47FF039A000B1AAE3
:10CF4E00C8C593D006A594D1AAF016C8B1AA186583
:10CF5E00AAAAC8B1AA65AB90D7A2102CA2084C4CB5
:10CF6E00C1A212A55ED0F720CCCEA55DA004D1AA99
:10CF7E00D0E74C06D020CCCE201BC1A00084BBA590
:10CF8E009391AAC8A59491AAA55DA00484BA91AA6A
:10CF9E0018A20BA900245E5007686901AA686900EF
:10CFAE00C891AAC88A91AA2055D086BA85BBA47109
:10CFBE00C65DD0DD65A5B05D85A5A88A65A4900384
:10CFCE00C8F052201BC1857F8480A900E6BBA4BA9D
:10CFDE00F0058891A4D0FBC6A5C6BBD0F5E6A53852
:10CFEE00A002A57FE5AA91AAC8A580E5AB91AAA546
:10CFFE005ED053C8B1AA855DA90085BA85BBC86845
:10D00E00AA85AE6885AFD1AA900ED006C88AD1AADD
:10D01E0090074C67CF4C4AC1C8A5BB05BAF00A2091
:10D02E0055D08A65AEAA98A47165AF86BAC65DD092
:10D03E00CB06BA2A06BA2AA8A5BA65A4859598651C
:10D04E00A58596A8A595608471B1AA857688B1AAA2
:10D05E008577A91085A8A200A0008A0AAA982AA8F6
:10D06E00B0B306BA26BB900B188A6576AA98657778
:10D07E00A8B0A2C6A8D0E360A55F10032082D3207B
:10D08E001FD238A581E57FA8A582E580465F85ADD4
:10D09E0084AEA290384C54D9A40EA900F0EEA68806
:10D0AE00E8D0A3A2164C4CC120E7D0859C849D20CD
:10D0BE00ACD0202DCCA980856120EBCD2003CB20D8
:10D0CE0022CCA9C12024CCA59648A59548A5C44834
:10D0DE00A5C34820C1C64C56D1A9AE2024CC098088
:10D0EE00856120F2CD4C03CB20E7D0489848202D07
:10D0FE00CC2014CB2022CC2003CB68859D68859C48
:10D10E00A220A003B19CF09D859688B19C8595AA1E
:10D11E00C8B195488810FAA49620F4D8A5C448A59D
:10D12E00C348B19C85C3C8B19C85C4A59648A59536
:10D13E00482000CB68859C68859D20C200F0034C7A
:10D14E0035CC6885C36885C4A00068919CC8689179
:10D15E009CC868919CC868919C602003CB20E2DA41
:10D16E00F012A6AEA4AF869E849F20EDD186AD842C
:10D17E00AE85AC60A222865B865C85B884B985AD2F
:10D18E0084AEA0FFC8B1B8F00CC55BF004C55CD08E
:10D19E00F3C922F0011884AC9865B885BAA6B99087
:10D1AE0001E886BBA5B9F004C900D00B982070D158
:10D1BE00A6B8A4B92063D3A665E071D005A21C4C15
:10D1CE004CC1A5AC9500A5AD9501A5AE9502A000EC
:10D1DE0086AE84AF88845F8666E8E8E8866560463A
:10D1EE00604849FF386581A482B00188C4809011DF
:10D1FE00D004C57F900B8581848285838484AA6840
:10D20E0060A20CA56030B8201FD2A980856068D0BE
:10D21E00D0A685A58686818582A000849D849CA546
:10D22E007FA68085AA86ABA96885718472C565F0D4
:10D23E000520A5D2F0F706A0A57BA67C8571867287
:10D24E00E47ED004C57DF005209FD2F0F385A48640
:10D25E00A5A90485A0A5A4A6A5E480D004C57FF049
:10D26E007585718672A002B17165A485A4C8B1716D
:10D27E0065A585A5A001B17110DBA004B1710A6985
:10D28E000520D7D2E4A5D004C5A4F0CD20A5D2F0B8
:10D29E00F3C8B1711030C8B171F02BC8B171AAC802
:10D2AE00B171C5829006D01EE481B01AC5AB90173D
:10D2BE00D004E4AA901186AA85ABA571A672859CAE
:10D2CE00869D888884A218A5A0657185719002E656
:10D2DE0072A672A00060C6A0A59D059CF0F3A4A244
:10D2EE0018B19C65AA85A6A5AB690085A7A581A6E0
:10D2FE008285A486A520D5C0A4A2C8A5A4919CAA67
:10D30E00E6A5A5A5C8919C4C23D2A5AF48A5AE48CD
:10D31E002000CC2005CB6885B86885B9A000B1B8CF
:10D32E001871AE9005A21A4C4CC12070D12055D365
:10D33E00A59EA49F2086D32067D3A5B8A4B9208626
:10D34E00D320C5D14C2BCBA000B1B848C8B1B8AAD8
:10D35E00C8B1B8A86886718472AAF014A000B17121
:10D36E009183C8CAD0F89818658385839002E684A5
:10D37E00602005CBA5AEA4AF8571847220B7D3080B
:10D38E00A000B17148C8B171AAC8B171A86828D0FF
:10D39E0013C482D00FE481D00B481865818581902B
:10D3AE0002E682688671847260C467D00CC566D04E
:10D3BE00088565E9038566A0006020D3D48A48A954
:10D3CE00012078D168A00091AD4CC5D148203BD446
:10D3DE00D19E98F00948203BD418F19E49FF900445
:10D3EE00B19EAA98488A482078D1A59EA49F2086EF
:10D3FE00D368A86818657185719002E672982067E7
:10D40E00D34CC5D148A9FF85AF20C200C929F0066B
:10D41E002031CC20D0D4203BD4CA8A4818A200F1A7
:10D42E009EB0C249FFC5AF90BDA5AFB0B92022CC0A
:10D43E006885A26885A368AA68859E68859FA000F6
:10D44E008AF079E6A26CA200207FD385ACA8F038D2
:10D45E002078D186AD84AEA888B1712063CE9002BB
:10D46E000920918398D0F1F01F207FD385ACA8F0CE
:10D47E00172078D186AD84AEA888B171205FCE908A
:10D48E000229DF918398D0F14CC5D120BC0020EB4E
:10D49E00CD2022CC2005CBA002B195AA88B195A8AB
:10D4AE008A4C9AD020B8D44CA8D0207FD3A8602024
:10D4BE00B8D4F008A000B171A84CA8D04C6ACF2007
:10D4CE00BC002000CB20E3CEA4AED0F0A6AF4CC261
:10D4DE000020B8D4D0034C9DD648C8982078D16887
:10D4EE002067D3A900A89183A6C3A4C486BA84BB1F
:10D4FE00A6ADA4AE86C384C420C20020F3D9A6BABA
:10D50E00A4BB86C384C4602000CB202ED52031CC92
:10D51E00A51248A5114820D0D468851168851260DF
:10D52E00A5ACC998B096209DD9A5AEA4AF8411859F
:10D53E001260202ED5A200A111A84CA8D02015D57E
:10D54E008AA200811160202ED5A200A111A8E61199
:10D55E00D002E612A1114C9AD02000CB202ED584F9
:10D56E009785982031CC2000CB202ED598A2008113
:10D57E0097E697D002E698A51281974CC20020EB51
:10D58E00CD85978498A55F482031CC20EBCD68459A
:10D59E005F1010A003B197AAB19591978A919588C3
:10D5AE0010F3604C0FCB2000CB20BDD54CC200A990
:10D5BE00D548A9CE48202ED5A507A608A4096C11DA
:10D5CE0000850786088409602015D58697A200205D
:10D5DE00C200F003201BD58698B11145982597F00F
:10D5EE00F86020D8D7A5B049FF85B045B785B8A556
:10D5FE00AC4C0ED62027D7904DA941A0E220D8D70B
:10D60E00D010A5B785B0A204B5B295ABCAD0F98635
:10D61E00B960A6B986A3A2B3A5B3A8F0C438E5AC89
:10D62E00F024901284ACA4B784B049FF6900A00026
:10D63E0084A3A2ACD004A00084B9C9F930B6A8A5C1
:10D64E00B95601203ED724B8104CA0ACE0B3F0027E
:10D65E00A0B33849FF65A385B9B90300F50385AFBB
:10D66E00B90200F50285AEB90100F50185ADB00332
:10D67E0020E3D6A0009818A6ADD03EA6AE86ADA6E5
:10D68E00AF86AEA6B986AF84B96908C918D0E8A925
:10D69E000085AC85B06065A385B9A5AF65B685AFCD
:10D6AE00A5AE65B585AEA5AD65B485ADB01A60699C
:10D6BE000106B926AF26AE26AD10F438E5ACB0CFD4
:10D6CE0049FF690185AC900CE6ACF03666AD66AEEE
:10D6DE0066AF66B960A5B049FF85B0A5AD49FF85B7
:10D6EE00ADA5AE49FF85AEA5AF49FF85AFA5B9493A
:10D6FE00FF85B9E6B9D00AE6AFD006E6AED002E6AF
:10D70E00AD60A20A4C4CC1A274B40384B9B40294A5
:10D71E0003B4019402A4B29401690830ECF0EAE972
:10D72E0008A8A5B9B01216019002F601760176018D
:10D73E00760276036AC8D0EE18602036D9F0021051
:10D74E00034C6ACFA5ACE97F48A98085ACA9C1A0DE
:10D75E00E1200BD6A9C5A0E1204ED8A938A0E22021
:10D76E00F0D5A9B4A0E1209FDCA9C9A0E1200BD679
:10D77E00682092DAA9CDA0E120D8D7F04C20FED7B0
:10D78E00A900857585768577A5B920ADD7A5AF207B
:10D79E00ADD7A5AE20ADD7A5AD20B3D74CBBD8D055
:10D7AE0004384C15D7386AA8901318A57765B68536
:10D7BE0077A57665B58576A57565B4857566756646
:10D7CE0076667766B9984AD0DE6085718472A0035A
:10D7DE00B17185B688B17185B588B17185B745B01F
:10D7EE0085B8A5B7098085B488B17185B3A5AC603D
:10D7FE00A5B3F01D1865AC90043031182C101269C9
:10D80E008085ACD0034CA1D6A5B885B060A5B0106C
:10D81E001B68684C9DD62017D9AAF0F0186902B083
:10D82E000BA20086B82028D6E6ACD0E04C10D7204C
:10D83E0017D9A949A0E2A20086B820CAD84C51D85F
:10D84E0020D8D7F0632026D9A90038E5AC85AC20C6
:10D85E00FED7E6ACF0D6A2FFA901A4B4C4ADD00A9F
:10D86E00A4B5C4AED004A4B6C4AF082A900EA001CD
:10D87E00E8E0023004D028A040957598289014A8AE
:10D88E00A5B6E5AF85B6A5B5E5AE85B5A5B4E5AD4E
:10D89E0085B49806B626B526B4B0CF30BD10CB4AA7
:10D8AE006A6A85B9284CBBD8A2144C4CC1A57585A3
:10D8BE00ADA57685AEA57785AF4C81D68571847280
:10D8CE00A003B17185AF88B17185AE88B17185B095
:10D8DE00098085AD88B17185AC84B960A2A4A00021
:10D8EE00F004A697A4982026D986718472A003A569
:10D8FE00AF917188A5AE917188A5B0097F25AD91C4
:10D90E007188A5AC917184B9602026D9A205B5ABFA
:10D91E0095B2CAD0F986B960A5ACF0FB06B990F7FE
:10D92E002005D7D0F24CD6D6A5ACF009A5B02AA9C1
:10D93E00FFB002A901602036D985ADA90085AEA23F
:10D94E0088A5AD49FF2AA90085AF86AC85B985B0FB
:10D95E004C7CD646B06085738474A000B173C8AA9F
:10D96E00F0C6B17345B030C4E4ACD01AB1730980BF
:10D97E00C5ADD012C8B173C5AED00BC8A97FC5B99D
:10D98E00B173E5AFF028A5B0900249FF4C3CD9A584
:10D99E00ACF04A38E99824B01009AAA9FF85B22044
:10D9AE00E9D68AA2ACC9F910062027D784B260A89E
:10D9BE00A5B0298046AD05AD85AD203ED784B260B9
:10D9CE00A5ACC998B01E209DD984B9A5B084B04924
:10D9DE00802AA99885ACA5AF855B4C7CD685AD8594
:10D9EE00AE85AFA860A000845FA20994A8CA10FB00
:10D9FE00907FC92DD00486B1F004C92BD00520BC70
:10DA0E0000906EC924D0034CC1DEC925D0084CEF5E
:10DA1E00DE20BC00905BC92EF02EC945D03020BC54
:10DA2E00009017C9B7F00EC92DF00AC9B6F008C993
:10DA3E002BF004D00766AB20BC00905B24AB100E1D
:10DA4E00A90038E5A94C5EDA66AA24AA50C3A5A996
:10DA5E0038E5A885A9F0121009203DD8E6A9D0F91D
:10DA6E00F0072024D8C6A9D0F9A5B13001604C42E8
:10DA7E00DC4824AA1002E6A82024D868290F209298
:10DA8E00DA4C1FDA482017D9682047D9A5B745B018
:10DA9E0085B8A6AC4C0ED6A5A9C90A9009A96424CE
:10DAAE00AB300E4C10D70A0A65A90AA00071C3E963
:10DABE002F85A94C45DAA96EA0E8200EC9A588A627
:10DACE008785AD86AEA290382054D9A0009820F05C
:10DADE00DA4C0EC9A000A92024B01006A92DC899B1
:10DAEE00EE0085B084BAA6ACD006C8A9304CFCDBDB
:10DAFE00A900E081B009A9D9A0E12086D7A9FA85AD
:10DB0E00A8A9D5A0E12064D9F01E1012A9D1A0E1D8
:10DB1E002064D9F002100E2024D8C6A8D0EE203DE5
:10DB2E00D8E6A8D0DC2007D6209DD9A201A5A8183A
:10DB3E0069073009C908B00669FFAAA90238E902C7
:10DB4E0085A986A88AF0021013A4BAA92EC899EE48
:10DB5E00008AF006A930C899EE0084BAA000A2800F
:10DB6E00A5AF18794FE285AFA5AE794EE285AEA589
:10DB7E00AD794DE285ADE8B00410E5300230E18AB2
:10DB8E00900449FF690A692FC8C8C88495A4BAC809
:10DB9E00AA297F99EE00C6A8D006A92EC899EE0034
:10DBAE0084BAA4958A49FF2980AAC012D0B2A4BA19
:10DBBE00B9EE0088C930F0F8C92EF001C8A92BA61D
:10DBCE00A9F02E1008A90038E5A9AAA92D99F000F0
:10DBDE00A94599EF008AA22F38E8E90AB0FB693A05
:10DBEE0099F2008A99F100A90099F300F00899EED4
:10DBFE0000A90099EF00A9EFA00060F042A5B3D0F4
:10DC0E00034C9FD6A29CA00020F4D8A5B7100F20DD
:10DC1E00CED9A99CA0002064D9D00398A45B201271
:10DC2E00D698482048D7A99CA0002086D7204DDC46
:10DC3E00684A900AA5ACF006A5B049FF85B060A968
:10DC4E00DDA0E12086D7A5B969509003202ED98595
:10DC5E00A3201AD9A5ACC9889003201BD820CED9F1
:10DC6E00A55B186981F0F338E90148A204B5B3B495
:10DC7E00AC95AC94B3CA10F5A5A385B920F3D52005
:10DC8E0042DCA9E1A0E120B5DCA90085B8684C0012
:10DC9E00D885BA84BB20EAD8A9A42086D720B9DCBF
:10DCAE00A9A4A0004C86D785BA84BBA2A820ECD824
:10DCBE00B1BA85B1A4BAC898D002E6BB85BAA4BBE6
:10DCCE002086D7A5BAA4BB1869049001C885BA846A
:10DCDE00BB200BD6A9A8A000C6B1D0E460A5ACF0BD
:10DCEE0007A2D8A00020F4D8A2AFA01306D926DA36
:10DCFE0026DB26D890058A45D985D988D0EEA20292
:10DD0E00B5D995ADCA10F9A98085AC0A85B04C81FC
:10DD1E00D6A9FEA0E1200BD62017D9A913A0E2A602
:10DD2E00B72046D82017D920CED9A90085B820F320
:10DD3E00D5A945A0E220F0D5A5B048100D2007D6F4
:10DD4E00A5B03009A56349FF85632042DCA945A033
:10DD5E00E2200BD66810032042DCA902A0E24C9F01
:10DD6E00DC20EAD8A90085632026DDA29CA0002035
:10DD7E00F4D8A9A4A00020CAD8A90085B0A5632014
:10DD8E0097DDA99CA0004C4ED8484C58DD200A00C7
:10DD9E002047D54C22CCA5B04810032042DCA5ACC0
:10DDAE0048C9819007A938A0E2204ED8A917A0E251
:10DDBE00209FDC68C9819007A9FEA0E120F0D568FC
:10DDCE0010164C42DC2015D5E008B020A900382AE8
:10DDDE00CA10FCE801118111602015D5E008B00CC5
:10DDEE00A9FF2ACA10FCE821118111604C6ACF20CC
:10DDFE00BC002015D5E008B0F320C200C929F003FD
:10DE0E004C35CC20BC00A900382ACA10FCE82111E0
:10DE1E00F002A9FF4C47D9E019B0488678A918201E
:10DE2E0078D1A017A2184611661266138A2A91ADF0
:10DE3E008810F3A578F00AAA3849FF6918F01CD0AB
:10DE4E000FA8B1ADC930D007CAF003C810F4E898D6
:10DE5E001865AD85ADA90065AE85AE86AC20BC005B
:10DE6E004CC5D14C6ACFE007B0F98678A906207868
:10DE7E00D1A005A51320A0DEA51220A0DEA511209D
:10DE8E00A0DEA206A578F0B9AA3849FF6906F0CB44
:10DE9E00D0BEAA290F20ABDE8A4A4A4A4AC90A9046
:10DEAE00026906693091AD886085ACA90085B88A93
:10DEBE002092DA20BC00900A0920E961C906B02A36
:10DECE00690A290FAAA5ACF0E4690490DC4C10D7BE
:10DEDE00AAA5ACF006E6ACF0F4A90085B88A2092AB
:10DEEE00DA20BC004930C90290E64C77DAAD000268
:10DEFE00D018203DE1900B8D0102A2208E02024C23
:10DF0E0050C5AE0202F003CE0202A2DC2023DFA235
:10DF1E00DF2023DF60B50010FB0A2940F0F69500E4
:10DF2E008AA86868A9052010C1A5C448A5C348A53C
:10DF3E008848A58748A98D48B9010085C3B9020054
:10DF4E0085C44CF7C4203DE1B009AD0202F009AD25
:10DF5E00010238A2008E020260A2DF2CA2DCC9935D
:10DF6E00F011C9B5F00749A2F00E4C35CCA97F359A
:10DF7E00001005B5000A150095004CBC0058A2DF34
:10DF8E002CA2DC867820BC00208DC7A579A67A202D
:10DF9E0062C3B0034CA7C6A678A5AAE9019501A550
:10DFAE00ABE9009502A9C0950060D0FDA5DF0A057A
:10DFBE00DF85DF4CAEC6D0F1A5DC0A05DC85DC4C76
:10DFCE00AEC6201CCB4C03CB2004E010FBA5B4093D
:10DFDE008085B42010D6F0F02004E030FBF0F9A5D7
:10DFEE00B4098085B42010D6F0EEC929D005686832
:10DFFE004CBC004C35CC20C200C92CD0ED2026D90B
:10E00E00A5B0097F25AD48A5AE48A5AF48A5AC483B
:10E01E0020BC002000CB6885B36885B66885B568DE
:10E02E0085B485B7A9B3A0004C64D9C92CF01B20C8
:10E03E00D0D48AF00AE0109045E464B0028664867B
:10E04E000F20C200F01AC92CD0A920CDD48A302EB0
:10E05E00E001902AA50FF006E40FF002B0208664CE
:10E06E00A50FF006C564B003856438E564B0FC65A1
:10E07E00641865648510A50F38E5108510604C6A2C
:10E08E00CFA5B030F9A5ACF0F42017D9A90085774B
:10E09E0085768575857885AF85AE85ADA218A5B3D5
:10E0AE004AB00E06B626B526B426772676267526EF
:10E0BE007806B626B526B4267726762675267806F1
:10E0CE00AF26AE26ADA5AF2A855BA5AE2A855CA58B
:10E0DE00AD2A855DA9002A855EA577E55B855BA5E2
:10E0EE0076E55C855CA575E55DA8A578E55E900E88
:10E0FE0085788475A55C8576A55B8577E6AFCAD0F5
:10E10E00A238A5B3E9806A690085AC4C81D620BCE3
:10E11E000020EBCD2022CCA495A5964C9AD0A91325
:10E12E00A0E220CAD8C6AC60A913A0E24CCAD86C33
:10E13E0006026C08026C0A026C0C0200000000FB66
:10E14E00DEE6C3D002E6C4ADFFFFC9ACF00EC93A9D
:10E15E00B00AC920F0EB38E93038E9D0604C03C082
:10E16E004C03C0000000004CBDD5000000F20003BF
:10E17E000D0A4D656D6F72792073697A65200045C1
:10E18E006E68616E63656420424153494320322EAE
:10E19E0032327035610D0A00204279746573206643
:10E1AE007265650D0A000280195662807622F3822E
:10E1BE0038AA40803504F3813504F3808000008056
:10E1CE0031721891434FF8947423F794742400819C
:10E1DE0038AA3B067463908C77230CAB7A1E94009E
:10E1EE007C6342807E75FED0803172158100000006
:10E1FE0081490FDB04861ED7FB879926658723345A
:10E20E005886A55DE183490FDB08783AC5377B83D5
:10E21E00A25C7C2EDD4D7D99B01E7D59ED247E9144
:10E22E0072007E4CB9737FAAAA53810000008180D0
:10E23E00000090800000007F00000084200000FE9F
:10E24E007960002710FFFC18000064FFFFF6000045
:10E25E000153C58FC497CAC0C681C99FCDA3C9EB50
:10E26E00C7BDC71FC6DEC5EEC674C502C6B7DFC3BF
:10E27E00DFABC655C751C55EC7B2C5C0C7D5D542FF
:10E28E00E145E1B5D04AD566D5B3D5E8C551C690BE
:10E29E00C8B8C5DAC3D7C387C338E05FC88BD5D239
:10E2AE00DDE6DD66DF69DFA5CCA5CCA5CC1BCB1EDC
:10E2BE00CC1ECCA5CCA5CCA5CCA5CCA5CCA5CCA54F
:10E2CE00CCA5CCA5CCA5CC00009FCCA5CC9FCC9F3B
:10E2DE00CC9FCC9FCCA5CCCCCCCCCC0000CFDFCF70
:10E2EE00DFABCCABCC0000B0CCB0CCB0CC43D9CDF6
:10E2FE00D960D99ADD85D0A5D08EE0EADC47D74C1F
:10E30E00DC1EDD25DD6EDDA3DD3FD553D598D4B102
:10E31E00D467D1DED4BCD476D455D4C7D373DE241F
:10E32E00DEFCDDD5DFE5DF2BE135E11BE1D9D3E204
:10E33E00D311D4790DD679F2D57B88D77B50D87F7F
:10E34E0008DC5015CD46FBCC4608CD56C1CD56A99E
:10E35E00CD7D41DC5A49CC6436CD2A2B2D2F3C3D48
:10E36E003E3F4142434445464748494C4D4E4F502F
:10E37E005253545556575E00C0E3C2E3C4E3C6E39E
:10E38E00C8E3CCE3CEE3D2E3D4E3E4E3FDE314E469
:10E39E002DE43CE446E453E459E46BE490E49EE45B
:10E3AE00B0E4B8E4CDE4FCE427E53BE54CE558E504
:10E3BE0067E5B800B600B700B9003CBFC200C100A7
:10E3CE003EBEC0009F00425328C54E44BB53432857
:10E3DE00D7544E28D000494E2428DC4954434C5281
:10E3EE00A84954534554A7495454535428DD004169
:10E3FE004C4C9C48522428DA4C454152A24F4E5464
:10E40E00A04F5328CD004154418345438845454B89
:10E41E0028D2454699494D854F4B459B4F9D004C03
:10E42E005345AC4E44804F52BC585028CC004EAE93
:10E43E004F5281524528C7004554A54F5355428D22
:10E44E004F544F890045582428DB00468B4E439588
:10E45E004E505554844E5428C45251A90043415332
:10E46E00452428D94546542428E3454E28D44554FE
:10E47E0087495354A14F4144974F4728CB4F4F5094
:10E48E009E00415828DE49442428E5494E28DF00E5
:10E49E004557A3455854824D49AA4F54B1554C4C3B
:10E4AE0094004646B54E9352BD0045454B28D14982
:10E4BE00E04F4B459A4F5328C852494E549F004542
:10E4CE00414486454D914553544F52458C455449D0
:10E4DE0052518E45544E4D498F455455524E90498A
:10E4EE004748542428E44E4428CA554E8A004144D5
:10E4FE004428D341564598474E28C3494E28CE50FE
:10E50E004328AF515228C9544550B2544F509254DB
:10E51E00522428D5574150A600414228AB414E28DF
:10E52E00CF48454EB04FAD574F5049E10043415390
:10E53E00452428D84E54494CB3535228C600414C5A
:10E54E0028D6415250545228E20041495496484927
:10E55E004C45B449445448A400BA00034531E40381
:10E56E00463EE4044EA1E4044414E405495EE4038B
:10E57E004423E40452CDE4034C7CE4034418E40445
:10E58E00474EE40352F8E4024959E40752D4E40535
:10E59E004749E40652DBE40652E1E40652E7E4039F
:10E5AE0052D1E4045319E5024FB3E4044EABE40335
:10E5BE00495BE4045758E5044C83E4045301E50336
:10E5CE004420E40450BFE4044426E40443FDE30283
:10E5DE00442AE4044C8BE40550C7E404430BE404E2
:10E5EE004C7FE4054306E4034E9EE4055761E503C4
:10E5FE004746E4045322E50642EFE30642E9E3030D
:10E60E004967E4034EA5E4045427E504452DE402CE
:10E61E005433E502463CE404530DE504542FE50360
:10E62E004EA8E4045315E5055542E505575CE50390
:10E63E004FB0E4012B0000012D0000012A00000163
:10E64E002F0000015E00000341D8E3034534E402CD
:10E65E004FB5E4023ECEE3023CC8E3013E000001AA
:10E66E003D0000013C0000045305E5044963E40449
:10E67E0041D4E3045547E5044641E40450C3E404A1
:10E68E005311E50452F4E4044C87E4044537E404E2
:10E69E00430FE4045309E504542BE50441DFE3057D
:10E6AE0050B8E405441BE40553FCE4044C78E4053F
:10E6BE00531DE504564CE50441DBE307553BE507E6
:10E6CE004C6BE4054301E4054853E40542E4E307DB
:10E6DE0042F5E3044D90E4044D99E40250BDE40587
:10E6EE005435E5075650E5064C72E40752EDE40545
:10E6FE004D94E427E738E73FE754E760E76EE777A6
:10E70E00E785E799E7A6E7B7E7C6E7D5E7E3E7F3D7
:10E71E00E706E815E828E838E84E455854207769AA
:10E72E0074686F757420464F520053796E74617819
:10E73E000052455455524E20776974686F75742097
:10E74E00474F535542004F7574206F662044415415
:10E75E00410046756E6374696F6E2063616C6C0068
:10E76E004F766572666C6F77004F7574206F6620FA
:10E77E006D656D6F727900556E646566696E656460
:10E78E002073746174656D656E7400417272617987
:10E79E0020626F756E647300446F75626C652064E1
:10E7AE00696D656E73696F6E004469766964652084
:10E7BE006279207A65726F00496C6C6567616C20B6
:10E7CE006469726563740054797065206D69736D48
:10E7DE006174636800537472696E6720746F6F2082
:10E7EE006C6F6E6700537472696E6720746F6F2062
:10E7FE00636F6D706C65780043616E277420636F74
:10E80E006E74696E756500556E646566696E6564D5
:10E81E002066756E6374696F6E004C4F4F50207793
:10E82E006974686F757420444F00556E646566692F
:10E83E006E6564207661726961626C6500556E6406
:10E84E00696D656E73696F6E656420617272617950
:10E85E00000D0A427265616B00206572726F720064
:10E86E0020696E206C696E6520000D0A5265616428
:10E87E00790D0A002045787472612069676E6F7297
:10E88E0065640D0A00205265646F2066726F6D20FC
:10E89E0073746172740D0A00FFFFFFFFFFFFFFFF2D
:10E8AE00FFFFFFFFFFFFFFFFFFFFFFFFFFFFFFFF6A
:10E8BE00FFFFFFFFFFFFFFFFFFFFFFFFFFFFFFFF5A
:10E8CE00FFFFFFFFFFFFFFFFFFFFFFFFFFFFFFFF4A
:10E8DE00FFFFFFFFFFFFFFFFFFFFFFFFFFFFFFFF3A
:10FDFE00FFFFD8A2FF9AA00CB949FE99050288D040
:10FE0E00F7B973FEF0062040E1C8D0F5203DE19031
:10FE1E00FB29DFC957F007C943D0D74C03C04C00AC
:10FE2E000048AD18802902F0F9688D198060AD1870
:10FE3E00802901C901D003AD198060603CFE2FFE00
:10FE4E0049FE49FE56FE6AFE85E2A5DFD0038DFE11
:10FE5E00BF092085DF68090448A5E24048A5DC09F2
:10FE6E002085DC68400D0A36353032204568424127
:10FE7E00534943205B435D6F6C642F5B575D61722A
:10FE8E006D203F00446572697665642066726F6D01
:10FE9E002045684241534943FFFFFFFFFFFFFFFF2D
:10FEAE00FFFFFFFFFFFFFFFFFFFFFFFFFFFFFFFF54
:10FEBE00FFFFFFFFFFFFFFFFFFFFFFFFFFFFFFFF44
:10FECE00FFFFFFFFFFFFFFFFFFFFFFFFFFFFFFFF34
:10FEDE00FFFFFFFFFFFFFFFFFFFFFFFFFFFFFFFF24
:10FEEE00FFFFFFFFFFFFFFFFFFFFFFFFFFFFFFFF14
:10FEFE00FFFFFFFFFFFFFFFFFFFFFFFFFFFFFFFF04
:10FF0E00FFFFFFFFFFFFFFFFFFFFFFFFFFFFFFFFF3
:10FF1E00FFFFFFFFFFFFFFFFFFFFFFFFFFFFFFFFE3
:10FF2E00FFFFFFFFFFFFFFFFFFFFFFFFFFFFFFFFD3
:10FF3E00FFFFFFFFFFFFFFFFFFFFFFFFFFFFFFFFC3
:10FF4E00FFFFFFFFFFFFFFFFFFFFFFFFFFFFFFFFB3
:10FF5E00FFFFFFFFFFFFFFFFFFFFFFFFFFFFFFFFA3
:10FF6E00FFFFFFFFFFFFFFFFFFFFFFFFFFFFFFFF93
:10FF7E00FFFFFFFFFFFFFFFFFFFFFFFFFFFFFFFF83
:10FF8E00FFFFFFFFFFFFFFFFFFFFFFFFFFFFFFFF73
:10FF9E00FFFFFFFFFFFFFFFFFFFFFFFFFFFFFFFF63
:10FFAE00FFFFFFFFFFFFFFFFFFFFFFFFFFFFFFFF53
:10FFBE00FFFFFFFFFFFFFFFFFFFFFFFFFFFFFFFF43
:10FFCE00FFFFFFFFFFFFFFFFFFFFFFFFFFFFFFFF33
:10FFDE00FFFFFFFFFFFFFFFFFFFFFFFFFFFFFFFF23
:10FFEE00FFFFFFFFFFFFFFFFFFFFFFFF6AFE00FEA9
:02FFFE0056FEAD
:020000040001F9
:1000000002EF81F0080E0001B16F000E0401186FBD
:100010001969C968000E086F0969C768000E106F7A
:100020001169C8680091BE90C6900093BE92C692B6
:1000300000970187C686009BBE8AC69A0099BE8833
:10004000C6982093C282CA9220912181CA802095AD
:10005000C284CA94010E0201D56FA00ED46FD1895B
:10006000D18B0401009FC68E070E0201766F04013A
:10007000009DBE8CC69C260E0201076FD28F1F0EFC
:10008000636F1E0E646F030E656F1D0E676F1C0E8F
:10009000686F000E0001D56F020ED86F030ED96F86
:1000A000040EDA6F7F0EDB6F020EDC6F080EDD6F61
:1000B000200EDE6F400EDF6F000ED76FA20ED66FE0
:1000C000010ED56F020ED86F030ED96F060EDA6FD0
:1000D0007F0EDB6F010EDC6F040EDD6F100EDE6F26
:1000E000400EDF6F000ED76FA20ED66F000E046EAB
:1000F000000E036E000E0324D96E200E0420DA6E6B
:10010000000EDF6E034A042A04BEF4D7200E045CFE
:10011000D8A0F0D7000EF86E550E0401596FAA0E44
:10012000596F5991080E5D6F000E5E6F000E5F6F84
:10013000550E596FAA0E596F5981BE82BE92BE826A
:10014000BE92BE82BE92BE82BE92BE82BE92BE826F
:10015000BE92BE82D68EBE80BE92BE820001D4A167
:1001600009D0C86ACFC4F6F4D1C4F7F40800F5C4C6
:10017000C0F445D0D4A315D0CEA60AD0C86ACFC447
:10018000D9F4D1501F0B2009DA6EDFC4C0F437D088
:10019000CFC4D9F4D1501F0B2009DA6ED0C4DFF4DC
:1001A0002ED0CEA61ED0610044F302F561003CF3D0
:1001B00001F5000EC86E180E011807E1800E021836
:1001C000D8A403D0B7C4C0F41AD0190E011807E19F
:1001D000800E0218D8A403D0C7C2C0F410D0C068E3
:1001E0000ED0610044F302F561003CF301F5190EF5
:1001F000011805E1800E0218D8B4D0C4C9F2BE922D
:10020000C868ABD7026A016A0401080E5D6F000E70
:0E0210005E6F000E5F6F000102EF80F01100C4
:020000040020DA
:10000000FF0FFF0FFF0FFF0FFF0FFF0FFF0FFF0F80
:10001000FF0FFF0FFF0FFF0FFF0FFF0FFF0FFF0F70
:10002000FF0FFF0FFF0FFF0FFF0FFF0FFF0FFF0F60
:10003000FF0FFF0FFF0FFF0FFF0FFF0FFF0FFF0F50
:020000040030CA
:100000008C2FFFF79FFFFFFFFFFFFFFFFFFFFFFFAB
:10001000FFFFFFFFFFFFFFFFFFFFFFFFFFFFFFFFF0
:04002000FFFFFFFFE0
:00000001FF
